:100000008031012F00008E30F70026002108F80013
:100010002008F900FA01F808031D18287908F800EB
:10002000F9010830F702F808031D1828F701202805
:100030000310F81B1F28F90DF80DF7031828F81303
:10004000200008002600200803199328AA0024088D
:1000500003199328AA07031834287F30AA02031C27
:1000600093280319932838288130AA070318932866
:100070002A08F700F801F901FA012108AE00AE17CD
:100080002208AD002308AC001830AA00AB012C1CDC
:1000900061282708FA07031C5328F90A031D53286F
:1000A000F80A0319AB172608F907031C5A28F80A9F
:1000B0000319AB172508A200A2172208F807031896
:1000C000AB17AB0DF80CF90CFA0CAE0CAD0CAC0C7C
:1000D0000310AA0B46280130F70703189328F81BD2
:1000E0007828AE0DFA0DF90DF80DF70303199328D2
:1000F000AE1F8928FA0A031D8928F90A031D8928D9
:10010000F80A031D8928F80CF90CFA0CF70A0319F0
:1001100093282108AB002508AB06AB1F9128F817E0
:100120009728F8139728F701F801F901FA01200040
:1001300008008030831C9F282600A506200026008A
:10014000AA01AB012108A9002508A9062008031966
:100150009029A800F700240803199929A802031977
:100160003429031CF1282508AE00AE172608AD007F
:100170002708AC00AB010310AE0CAD0CAC0CAB0C03
:10018000A80BBA28A91FC7282A14AD292A1028109D
:100190002A1621308500E3308400C2292A12A91BC7
:1001A000DB28281CE628AE0CAD0CAC0CAB0CF70A17
:1001B0000319A829E628AE1BE9280310AB0DAC0DE6
:1001C000AD0DAE0DF7030319A829DB282A17552911
:1001D0002A132108A900A91FEF28AE17A129AE13E1
:1001E000A1292408A800F7002008A8022108AE00D1
:1001F000AE172208AD002308AC00AB010310AE0C13
:10020000AD0CAC0CAB0CA80BFD28A91F0A29AA1435
:10021000AD29AA102810AA1621308500E7308400E5
:10022000C229AA12A91B1E29281C2929AE0CAD0C13
:10023000AC0CAB0CF70A0319A8292929AE1B2C29F1
:100240000310AB0DAC0DAD0DAE0DF7030319A829CE
:100250001E29AA175529AA132508A900A91F322962
:10026000AE17A129AE13A1292508AE00AE172608A6
:10027000AD002708AC00A91F4129AE132A15AD29EE
:100280002A11AB01281021308500E3308400C229F7
:10029000A91B6B292108A900281C5529AE0CAD0CFF
:1002A000AC0CAB0CF70A0319A829AB1F6629AC0AE2
:1002B000031D6629AD0A031D6629AE0A031D6629C2
:1002C000AE0CAD0CAC0CF70A0319A8292A1BE828C0
:1002D000AA1B2B298A298030AE06AE1F7329AD29AF
:1002E0002508A90080292108A900AE08031D80293E
:1002F000AD08031D8029AC08031D8029F701A12941
:10030000AE1B8A290310AB0DAC0DAD0DAE0DF70B76
:100310008029A829A91F8E29AE17A129AE13A129CA
:100320002408F7002508AE002608AD002708AC0019
:10033000A1292008F7002108AE002208AD002308FB
:10034000AC002E08F8002D08F9002C08FA00DE2970
:10035000F701F801F901FA01DE29AB01AC09AD0999
:10036000AE09AB09AB0A031DBB29AC0A031DBB29AF
:10037000AD0A0319AE0A2A18C628AA1809292A198B
:10038000402970290008AC07031CCC29AD0A031DC5
:10039000CC29AE0A031928141100AD07031CD32978
:1003A000AE0A031928141100801F803AAE07031803
:1003B00028142A1ACE28AA1A112948292000080030
:1003C000A6012608633C031C772E64302500A80094
:1003D000213085009830840000080319FC2906307C
:1003E000F800F701F70BF229F80BF1297B30F70041
:1003F000F70BF829800BEF29FA0120002608F900F5
:10040000F90DFA0DF90DFA0DFC30F9057908083EE1
:10041000F8002030FA3D78082500B0007A08B100D5
:1004200003102000260D2600A101A00020000320BB
:100430007A082600A3007908A2007808A1007708AE
:10044000A000DA30A7000F30A6004930A5008030A8
:10045000A400200022207A082500B5007908B40005
:100460007808B3007708B2003508B9003408B8003E
:100470003308B7003208B600BD01BC014830BB00EC
:100480008530BA0036080319072BC4003A0803194F
:10049000072BC402031C512A7F30C4070318072B03
:1004A000572A8130C402031C072B0319072B440869
:1004B000F700F801F901FA01C3013708C200C217B9
:1004C0003808C1003908C0001930C4003D08C00216
:1004D00003187A2A0130C10203187A2AC2020318CB
:1004E0007A2AC30203187A2AC30AC20AC10A3D083B
:1004F000C007AC2A3C08C1020318952A0130C20289
:100500000318952AC3020318952AC30AC20A3C0895
:10051000C1073D08C007031CAC2AC10A031DAC2A51
:10052000C20A031DAC2AC30AAC2A3B088038C202A7
:100530000318AB2A0130C3020318AB2AC30A3B08D5
:100540008038C2073C08C107031C892AC20A031D60
:10055000892AC30A892A7A14C40BAF2ABA2A03103B
:10056000C00DC10DC20DC30D0310FA0DF90DF80D2C
:10057000C50D662A451CC22A0310F80CF90CFA0CAA
:10058000C50CC52AF7030319072BC51BEE2A031058
:10059000C00DC10DC20DC30D3D08C0020318DA2AFB
:1005A0000130C1020318DA2AC2020318DA2AC30290
:1005B000031CFD2A3C08C1020318E52A0130C202CF
:1005C0000318E52AC302031CFD2A3B088038C20237
:1005D0000318EE2A0130C302031CFD2AFA0A031D88
:1005E000FD2AF90A031DFD2AF80A031DFD2AF70A50
:1005F0000319072BF80CF90CFA0C3708C4003B0858
:10060000C406C41F052BF8170B2BF8130B2BF7018F
:10061000F801F901FA017A08B5007908B400780800
:10062000B3007708B2003508B9003408B8003308C1
:10063000B7003208B600831439082600A30025004D
:1006400038082600A200250037082600A100250052
:1006500036082600A000DB30A7000F30A600493086
:10066000A5007F30A400200099207A082500BF0053
:100670007908BE007808BD007708BC003F08C300B9
:100680003E08C2003D08C1003C08C000CF01CE01B9
:10069000CD017F30CC007E30D8008030D900DA0127
:1006A000DB017A30DC002A30DD00AA30DE00A33026
:1006B000DF007530E000B630E1000930E200B43010
:1006C000E3006F30E4004F30E500B630E600AA30BA
:1006D000E7006930E8008B30E900F630EA00E830E6
:1006E000EB004308EF004208EE004108ED0040082F
:1006F000EC002600A301A201A101A00125006D08C4
:100700002600A4002108A406A41F8D2B03110310AA
:100710002500ED1B0314DB2B260025006D082600A9
:10072000A4002008A50025006C082600A5020319D6
:10073000A32BA41B9D2B2500DB2B0308013A830070
:100740002500DB2B26002108A50025006D082600CA
:10075000A5020319B52BA41BAF2B2500DB2B030827
:10076000013A83002500DB2B26002208A500250086
:100770006E082600A5020319C72BA41BC12B250058
:10078000DB2B0308013A83002500DB2B260023081E
:10079000A50025006F082600A5020319D92BA41B6C
:1007A000D32B2500DB2B0308013A83002500DB2B2C
:1007B000260003102500031CE02B4108803AC100ED
:1007C00043082600A300250042082600A2002500B9
:1007D00041082600A100250040082600A000833023
:1007E000A700F930A6002230A5007E30A40020002A
:1007F00022207A082500EF007908EE007808ED0045
:100800007708EC008E30F7006C08F7026D08F900ED
:100810006E08F800F917F7080319192C0310F908E6
:10082000031D152CF8080319192CF90CF80CF70BFB
:100830000E2CED1F202CF809F909F80A0319F90A02
:100840007808D00043082600A300250042082600AF
:10085000A200250041082600A1002500400826002E
:10086000A0008330A700F930A6002230A5007E301A
:10087000A400200022207A082500EF007908EE006D
:100880007808ED007708EC002600A101250050084B
:100890002600A00020000320831425006F082600F6
:1008A000A30025006E082600A20025006D08260082
:1008B000A10025006C082600A0007A08A70079088E
:1008C000A6007808A5007708A400200099207A08DF
:1008D0002500D5007908D4007808D3007708D20025
:1008E0000330D005D0080319792C5008023C031DB1
:1008F0009C2C55082600A300250054082600A200C1
:10090000250053082600A100250052082600A0005B
:10091000DB30A7000F30A6004930A5007F30A400CF
:10092000200022207A082500CB007908CA00780828
:10093000C9007708C800252D500BE32C831426002E
:10094000A301A201A1017F30A000250055082600C7
:10095000A700250054082600A600250053082600FD
:10096000A500250052082600A400200099207A083E
:100970002500EF007908EE007808ED007708EC001C
:100980006F082600A30025006E082600A20025009F
:100990006D082600A10025006C082600A000DB30B1
:1009A000A7000F30A6004930A5007F30A40020002A
:1009B00022207A082500CB007908CA007808C900EF
:1009C0007708C800252D831455082600A3002500AC
:1009D00054082600A200250053082600A100250087
:1009E00052082600A000A701A601A5017F30A4009F
:1009F000200099207A082500EF007908EE00780899
:100A0000ED007708EC006F082600A30025006E08B3
:100A10002600A20025006D082600A10025006C0814
:100A20002600A000DB30A7000F30A6004930A5004B
:100A30007F30A400200022207A082500CB0079080E
:100A4000CA007808C9007708C800C701C601C501F7
:100A50007F30C4004B082600A30025004A0826006A
:100A6000A200250049082600A1002500480826000C
:100A7000A00025004B082600A70025004A082600F4
:100A8000A600250049082600A500250048082600E4
:100A9000A400200022207A082500CB007908CA0093
:100AA0007808C9007708C800D1015108043C031C2C
:100AB000EA2D4F082600A30025004E082600A200BC
:100AC00025004D082600A10025004C082600A000A6
:100AD00025004B082600A70025004A082600A6008E
:100AE000250049082600A500250048082600A40086
:100AF000200022207A082500CF007908CE0078084F
:100B0000CD007708CC00510DF700F70DFC30F7054C
:100B10007708C83E8400213085000318850A000844
:100B2000EC0001310008ED0001310008EE00013158
:100B30000008EF003D316F082600A30025006E0875
:100B40002600A20025006D082600A10025006C08E3
:100B50002600A00025004F082600A70025004E080B
:100B60002600A60025004D082600A50025004C08FB
:100B70002600A4002000222005082500ED0004081E
:100B8000EC00831047082600A30025004608260035
:100B9000A200250045082600A100250044082600E3
:100BA000A0007A08A7007908A6007808A5007708B1
:100BB000A4002000992025006D0885006C088400A1
:100BC0007A08C7007908C6007808C5007708C4000D
:100BD000D10A552D5008023C0319F02D500BF32D6E
:100BE0004508803AC5004408F7004508F800460863
:100BF000F9004708FA007A08B5007908B4007808C7
:100C0000B3007708B2000508B7000408B6008310E7
:100C100035082600A300250034082600A200250080
:100C200033082600A100250032082600A000A701F5
:100C3000A601A5017F30A4002000992025003708D7
:100C40008500360884007A08B5007908B400780871
:100C5000B3007708B20035082600A3002500340849
:100C60002600A200250033082600A1002500320836
:100C70002600A000A701A601A5018A30A40020003B
:100C800022207A082500BB007908BA007808B9004C
:100C90007708B8003808B63CB800FA013908BC003B
:100CA000B9170310B90CBA0CBB0CFA0CF90CF80C00
:100CB000F70CB80B512EBC1F682EF709F809F9097B
:100CC000FA09F70A0319F80A0319F90A0319FA0AC3
:100CD0003108850030088400770880007808813F5B
:100CE0007908823F7A08833F2000A60AE1298031F3
:100CF000172F0830F800000022008E1121008E11FD
:100D000000002500B20D22000E12031C8A2E2100C5
:100D10000E16220003188F2E21000E122200210031
:100D20008E1520008E1D922EF80B7B2E00002200C7
:100D30008E1121008E1100000E16000000008E158D
:100D400020008E1DA12EF80100000E1A781422003A
:100D50008E1121008E1122000E1221000E12200091
:100D6000080021000E1600008E15000022000E1251
:100D700021000E12000022008E1121008E11C030C1
:100D80002500B2002000792640302500B200200066
:100D9000792625002E08F039B0002F080F39B10050
:100DA000B10CB00CB10CB00CB10CB00CB10CB00C5F
:100DB0000F30B1053008B2002000792625002E083A
:100DC0000F39B000B101B00DB10DB00DB10DB00DC6
:100DD000B10DB00DB10DF030B0053008B2002000FB
:100DE000792621000E1200008E1520008E1DF62E91
:100DF0000000FA2E000021000E16000080312000B5
:100E0000332F21000C1122000C152F0091019201AB
:100E1000980199019A0123008C018D012200920111
:100E20009101940193012000A001A101E029FA01A0
:100E30002608F900F90DFA0DF90DFA0DFC30F90547
:100E40007908083E840020307A3D8500000825009E
:100E5000AC0001310008AD003F312D08AF002C0877
:0A0E6000AE002000B12E162F630033
:020000040001F9
:04000E0082393316EA
:00000001FF
;PIC16F1938
;CRC=6F75  CREATED="31-Ara-23 16:47"
