:1000000000308A000428000003081F398300623092
:1000100083168F0090010F081F129F121B08803952
:100020009B0007309C0083138312A1010A30A200B9
:100030001430A3001E30A4002830A5003230A600E2
:100040003C30A7004630A8005030A9005A30AA0022
:100050006430AB006E30AC007830AD008230AE0062
:100060008C30AF009630B000A030B100AA30B200A2
:10007000B430B300BE30B400C830B500D230B600E2
:10008000DC30B700E630B800F030B900E630BA0036
:10009000DC30BB00D230BC00C830BD00BE30BE007A
:1000A000B430BF00AA30C000A030C1009630C200FA
:1000B0008C30C3008230C4007830C5006E30C6007A
:1000C0006430C7005A30C8005030C9004630CA00FA
:1000D0003C30CB003230CC002830CD001E30CE007A
:1000E0001430CF000A30D0000030F80006389200FB
:1000F000F930831692000610831206100C30970018
:100100009501A00120082F3C031CB6287E30F70083
:10011000F70B8828000083160610831206100C3097
:10012000970021302007840083130008D100950038
:100130002008173C031CA4288316051383120517F7
:1001400083168513831285132008173C0318B428DF
:1001500020082F3C031CB4288316051383120513B3
:100160008316851383128517A00A822881286300CD
:04400E00103F03005C
:00000001FF
;PIC16F88
;CRC=F720  CREATED="02-Oca-24 19:32"
